:100000000C94EC070C9433080C9433080C943308CC
:100010000C9433080C9433080C9433080C94330874
:100020000C9433080C9433080C9446240C94192532
:100030000C94BF1A0C9433080C9433080C943308B6
:100040000C9433080C9433080C9433080C94330844
:100050000C9433080C94201B0C9433080C94330834
:100060000C9433080C9433080C9433080C94330824
:100070000C9433080C9433080C9433080C94330814
:100080000C9433080C9433080C9433080C94330804
:100090000C9433080C9433080C9433080C943308F4
:1000A0000C9433080C9433080C94330829003A005C
:1000B0003B003C003D003E003F004000410042004C
:1000C000430044004500AE000000460047004800E1
:1000D00023021E001F002000210022002300240014
:1000E000250026002700050034002A0000004900F2
:1000F0004A004B002B0014001A00080015001700DE
:100100001D0018000C001200130018002E02000041
:1001100000004C004D004E0039000400160007009E
:1001200009000A000B000D000E000F001200040071
:10013000200228000000000000000000E10036025C
:100140001C001B00060019000500110010003700FC
:1001500037002D000130E1000000000052000000D7
:10016000E0006500E2000000000000002C0000003C
:1001700000000000E60000517600E00000005000A2
:1001800051004F000070010001000100010001005A
:100190000100010001000100010001000100480010
:1001A0000000010001000100010001000100010048
:1001B0000100010001000100010001000100010037
:1001C0000100010000000100010001000100010028
:1001D0000100010001000100010001000100010017
:1001E0000100010001000000000001000100010009
:1001F00001000100010001000100010001000100F7
:1002000001000100010001000100010000000000E8
:1002100000000000010001000100010001000100D8
:1002200001000100010001000100010001000100C6
:1002300000000000010000000100010001000000BA
:1002400000000000010000000000000001000100AB
:100250000100010000000100010001000100010097
:100260000100010001000100010001000100010086
:100270000100010001000100000001000100010077
:100280000100010001000100010001000100010066
:100290000100010001000100010001000000010057
:1002A0000100010001000100010001000100010046
:1002B0000100010001000100010001000100000037
:1002C0000000010001000100010001000100010027
:1002D0000100010001000100010001000100010016
:1002E000010001000000000000000000010001000A
:1002F00001000100010001000100010001000100F6
:1003000001000100010001000000000001000000E8
:1003100001000100010000000000000001000000D9
:1003200000000000010001000100010000000100C8
:1003300001000100010001000100010001000100B5
:1003400001000100010001000100010001000100A5
:100350000000010001000100010001000100010096
:100360000100010001000100010001000100010085
:100370000100010000000100010001000100010076
:100380000100010001000100010001000100010065
:100390000100010001000000000001000100010057
:1003A0000100010001000100010001000100010045
:1003B0000100010001000100010001000000000037
:1003C0000000000001000100010001000100010027
:1003D0000100010001000100010001000100010015
:1003E0000000000001000000010001000100000009
:1003F00000000000010000000000000001000100FA
:1004000001000100000001000100010001000100E5
:1004100001000100010001000100010001000100D4
:1004200001000100010001000000010001000100C5
:1004300001000100010001000100010001000100B4
:1004400001000100010001000100010000000100A5
:100450000100010001000100010001000100010094
:100460000100010001000100010001000100000085
:100470000000010001000100010001000100010075
:100480000100010001000100010001000100010064
:100490000100010000000000000000000100010058
:1004A0000100010001000100010001000100010044
:1004B0000100010001000100000000000100000037
:1004C0000100010001000000000000000100000028
:1004D0000000000001000100010001000000010017
:1004E0000100010001000100010001000100010004
:1004F00001000100010001000100010001000100F4
:1005000000000100010001000100010001000100E4
:1005100001000100010001000100010001000100D3
:1005200001000100000001000100010001000100C4
:1005300001000100010001000100010001000100B3
:1005400001000100010000000000010001000100A5
:100550000100010001000100010001000100010093
:100560000100010001000100010001000000000085
:100570000000000001000100010001000100010075
:100580000100010001000100010001000100010063
:100590000000000001000000010001000100000057
:1005A0000000000001000000000000000100010048
:1005B0000100010000000100010001000100010034
:1005C0000100010001000100010001000100010023
:1005D0000100010001000100000001000100010014
:1005E0000100010001000100010001000100010003
:1005F00001000100010001000100010000000100F4
:1006000001000100010001000100010001000100E2
:1006100001000100010001000100010001000000D3
:1006200000000100010001000100010001000100C3
:1006300001000100010001000100010001000100B2
:1006400001000100000000000000000001000100A6
:100650000100010001000100010001000100010092
:100660000100010001000100000000000100000085
:100670000100010001000000000000000100000076
:100680000000000001000100010001000000010065
:100690000100010001000100010001000100010052
:1006A0000100010001000100010001000100010042
:1006B0000000010001000100010001000100010033
:1006C0000100010001000100010001000100010022
:1006D0000100010000000100010001000100010013
:1006E0000100010001000100010001000100010002
:1006F00001000100010000000000010001000100F4
:1007000001000100010001000100010001000100E1
:1007100001000100010001000100010000000000D3
:1007200000000000010001000100010001000100C3
:1007300001000100010001000100010001000100B1
:1007400000000000010000000100010001000000A5
:100750000000000001000000000000000100010096
:100760000100010000000100010001000100010082
:100770000100010001000100010001000100010071
:100780000100010001000100000001000100010062
:100790000100010001000100010001000100010051
:1007A0000100010001000100010001000000010042
:1007B0000100010001000100010001000100010031
:1007C0000100010001000100010001000100000022
:1007D0000000010001000100010001000100010012
:1007E0000100010001000100010001000100010001
:1007F00001000100000000000000000001000100F5
:1008000001000100010001000100010001000100E0
:1008100001000100010001000000000001000000D3
:1008200001000100010000000000000001000000C4
:1008300000000000010001000100010000000100B3
:1008400001000100010001000100010001000100A0
:100850000100010001000100010001000100010090
:100860000000010001000100010001000100010081
:100870000100010001000100010001000100010070
:100880000100010000000100010001000100010061
:100890000100010001000100010001000100010050
:1008A0000100010001000000000001000100010042
:1008B0000100010001000100010001000100010030
:1008C0000100010001000100010001000000000022
:1008D0000000000001000100010001000100010012
:1008E0000100010001000100010001000100010000
:1008F00000000000010000000100010001000000F4
:1009000000000000010000000000000001000100E4
:1009100001000100000001000100010001000100D0
:1009200001000100010001000100010001000100BF
:1009300001000100010001000000010001000100B0
:10094000010001000100010001000100010001009F
:100950000100010001000100010001000000010090
:10096000010001000100010001000100010001007F
:100970000100010001000100010001000100000070
:100980000000010001000100010001000100010060
:10099000010001000100010001000100010001004F
:1009A0000100010000000000000000000100010043
:1009B000010001000100010001000100010001002F
:1009C0000100010001000100000000000100000022
:1009D0000100010001000000000000000100000013
:1009E0000000000001000100010001000000010002
:1009F00001000100010001000100010001000100EF
:100A000001000100010001000100010001000100DE
:100A100000000100010001000100010001000100CF
:100A200001000100010001000100010001000100BE
:100A300001000100000001000100010001000100AF
:100A4000010001000100010001000100010001009E
:100A50000100010001000000000001000100010090
:100A6000010001000100010001000100010001007E
:100A70000100010001000100010001000000000070
:100A80000000000001000100010001000100010060
:100A9000010001000100010001000100010001004E
:100AA0000000000001000000010001000100000042
:100AB0000000000001000000000000000100010033
:100AC000010001000000010001000100010001001F
:100AD000010001000100010001000100010001000E
:100AE00001000100010001000000010001000100FF
:100AF00001000100010001000100010001000100EE
:100B000001000100010001000100010000000100DE
:100B100001000100010001000100010001000100CD
:100B200001000100010001000100010001000000BE
:100B300000000100010001000100010001000100AE
:100B4000010001000100010001000100010001009D
:100B50000100010000000000000000000100010091
:100B6000010001000100010001000100010001007D
:100B70000100010001000100000000000100000070
:100B80000100010001000000000000000100000061
:100B90000000000001000100010001000000010050
:100BA000010001000100010001000100010001003D
:100BB000010001000100010001000100010001002D
:100BC000000001000100010001000100010001001E
:100BD000010001000100010001000100010001000D
:100BE00001000100000001000100010001000100FE
:100BF00001000100010001000100010001000100ED
:100C000001000100010000000000010001000100DE
:100C100001000100010001000100010001000100CC
:100C200001000100010001000100010000000000BE
:100C300000000000010001000100010001000100AE
:100C4000010001000100010001000100010001009C
:100C50000000000001000000010001000100000090
:100C60000000000001000000000000000100010081
:100C7000010001000000010001000100010001006D
:100C8000010001000100010001000100010001005C
:100C9000010001000100010000000100010001004D
:100CA000010001000100010001000100010001003C
:100CB000010001000100010001000100000001002D
:100CC000010001000100010001000100010001001C
:100CD000010001000100010001000100010000000D
:100CE00000000100010001000100010001000100FD
:100CF00001000100010001000100010001000100EC
:100D000001000100000000000000000001000100DF
:100D100001000100010001000100010001000100CB
:100D200001000100010001000000000001000000BE
:100D300001000100010000000000000001000000AF
:100D4000000000000100010001000100000001009E
:100D5000010001000100010001000100010001008B
:100D6000010001000100010001000100010001007B
:100D7000000001000100010001000100010001006C
:100D8000010001000100010001000100010001005B
:100D9000010001000000010001000100010001004C
:100DA000010001000100010001000100010001003B
:100DB000010001000100000000000100010001002D
:100DC000010001000100010001000100010001001B
:100DD000010001000100010001000100000000000D
:100DE00000000000010001000100010001000100FD
:100DF00001000100010001000100010001000100EB
:100E000000000000010000000100010001000000DE
:100E100000000000010000000000000001000100CF
:100E200001000100000001000100010012036B003D
:100E30006500790062006F006100720064000000CC
:100E4000160371006D006B006200750069006C0094
:100E500064006500720000000403090409026D00CB
:100E6000040100A0FA0904000001030101000921A6
:100E7000110100012240000705810308000A09044E
:100E800001000103010200092111010001224D00AE
:100E90000705820308000A0904020001030000009C
:100EA0000921110100012236000705830308000A09
:100EB00009040300010300000009211101000122BF
:100EC0003900070584032000011201100100000011
:100ED00008EDFE606001000102000105010906A1A4
:100EE00001050719E029E71500250195087501811D
:100EF00002050819012905950575019102950175ED
:100F00000391010507190029F71500250195F875CA
:100F1000018102C005010980A10185021601002698
:100F200003001A81002A8300751095018100C00515
:100F30000C0901A1018503160100269C021A01007B
:100F40002A9C02751095018100C005010902A101CA
:100F50000901A100050919012905150025019505BB
:100F6000750181029501750381010501093009317F
:100F70001581257F95027508810609381581257F21
:100F8000950175088106050C0A38021581257F95A3
:100F90000175088106C0C005010906A101050719F0
:100FA000E029E71500250195087501810295017575
:100FB000088101050819012905950575019102951A
:100FC00001750391010507190029FF150026FF008F
:100FD000950675088100C00011241FBECFEFDAE02E
:100FE000DEBFCDBF04B603FE27C080919102909171
:100FF0009202A0919302B09194028730904BA74047
:10100000B04BD1F41092910210929202109293027E
:101010001092940214BE84B7877F84BF0FB6F894F1
:10102000A8958091600088618093600010926000B4
:101030000FBEE0E0F8E3099511E0A0E0B1E0ECE0DC
:10104000F1E502C005900D92A034B107D9F722E076
:10105000A0E4B1E001C01D92A139B207E1F70E94FE
:101060009C210C9458280C94000090E080E0089596
:101070000895089581E00895089581E008950C94FD
:101080003A080E94ED122FEF84E39CE0215080404B
:101090009040E1F700C000000C94431BEF92FF92D8
:1010A0000F931F93CF93DF938C01FC01E080F180BD
:1010B0008091A401811140C082818823C1F1C701C0
:1010C0000E947218C82F682FC7010E941B18B70111
:1010D0008C2F0E94C409EC01B8010E943F088823AC
:1010E00009F44BC0B801CE010E94FC0B882309F41F
:1010F00044C0C531F0E7DF0720F5C23080E7D807EC
:1011000008F04DC0C115E0E7DE0791F1C130D047CE
:10111000E1F181E08093420180934301C801DF91B6
:10112000CF911F910F91FF90EF900C943D08C70154
:101130000E944918C82FCBCFC7010E947218B7016F
:10114000C8CFCC3380E7D80709F49BC0CD33D04754
:1011500001F7F8018281882309F4BAC01092430193
:101160000E94EF1A909341018093400180E296C063
:10117000F801828181110E94410880E0DF91CF91C6
:101180001F910F91FF90EF900895F80182818823BD
:10119000A1F380915002816080935002EECFF8015C
:1011A0008281882309F4BACF0E94321A811102C0C9
:1011B0000E94131A0E944F1A90E09093820280932B
:1011C0008102FE01E350F047809181028160E231AB
:1011D000F10538F4E65AF74D0C9408288091810205
:1011E000826080938102809181020E94531A0E9442
:1011F000ED12C3CF809181028460F3CF8091810290
:101200008860EFCF809181028061EBCF8091810275
:101210008062E7CF809181028064E3CF8091810278
:101220008068DFCF809181028C60DBCF809181026A
:101230008E7FD7CF809181028D7FD3CF8091810225
:101240008B7FCFCF80918102877FCBCF809181022E
:101250008F7EC7CF809181028F7DC3CF8091810225
:101260008F7BBFCF809181028F77BBCF809181022E
:10127000837FB7CF90918102892F97FB87F98058A0
:10128000B0CFF8018281882361F0109242010E9460
:10129000EF1A909341018093400182E00E94321046
:1012A0006CCF8091420181110FC0809140019091DB
:1012B00041010E94FB1A883C910530F486E20E94AD
:1012C000070F86E20E94E30F82E00E94391055CF9B
:1012D0008091430181110FC08091400190914101A3
:1012E0000E94FB1A883C910530F487E20E94070FA8
:1012F00087E20E94E30F80E2E8CF0C944D0C279A1E
:101300002F988FEF9FEF90938700809386008AE05D
:101310008093800089E1809381000C944E1F0E948D
:101320007F090C944B0C282F2F988091800021115D
:1013300008C0877F8093800010928D0010928C00EF
:101340000895886080938000233039F48FEF9FEFF9
:1013500090938D0080938C00089583E090E0821B31
:101360009109880F991F2FEF3FEF02C036952795FF
:101370008A95E2F730938D0020938C0008950C94A9
:101380003C080C94BF090895972F70E022E1929FCA
:10139000600D711D1124FB019CE6899FE00DF11D7C
:1013A0001124EE0FFF1FE455FF4F8591949108958E
:1013B000FC01EE0FFF1FE45DF14F859194910895BC
:1013C0000E94C4090E94800B9C01211581E5380709
:1013D00008F046C0211590E5390708F00CC1283EF9
:1013E000310518F5203E3105C8F5283A310578F465
:1013F000253A310508F097C02130310579F1C9014E
:101400000497813A910550F130E020E027C02D3B50
:10141000310508F493C0C901805C910980329105BF
:1014200098F70E94D8099C0119C0211580E338075C
:1014300070F4211590E2390708F0D7C02F3F31052D
:1014400009F060F4203F3105F8F2306507C021153E
:1014500080E4380708F4CCC03F70306AC9010895B1
:10146000211590E73907C8F5211580E6380708F0FF
:10147000FAC0211594E53907F0F4211583E5380702
:1014800008F0D8C0211592E5390708F4CEC0C9018B
:101490008370992741E050E002C0440F551F8A95A0
:1014A000E2F72695269580E2289F90011124242BAF
:1014B000352B3C68D3CF211595E5390708F4CEC00C
:1014C000C90195558F3F910511F008F09DCF322F3E
:1014D000222722273F713062C1CF213380E73807AE
:1014E00009F4C3C0A0F4203380E7380748F4203261
:1014F00090E7390708F488CF20523047346DAECFDB
:101500002033304709F080CF20E031EDA7CF2233E0
:1015100090E7390709F4ACC02333304709F074CFA2
:1015200020E033ED9BCF253A310509F4A4C0263ADB
:10153000310509F0A3C022E830E490CF283A310504
:1015400009F49FC0293A310509F49EC02A3A3105B1
:1015500009F49DC02B3A310509F49CC02C3A3105A1
:1015600009F49BC02B3B310509F49AC02C3B310593
:1015700009F499C02D3A310509F498C0203B310592
:1015800009F497C02E3A310509F496C02F3A310577
:1015900009F495C0213B310509F494C0223B310583
:1015A00009F493C0233B310509F492C0243B310573
:1015B00009F491C0253B310509F490C0263B310563
:1015C00009F48FC0273B310509F48EC0283B310553
:1015D00009F48DC0293B310509F48CC02A3B310543
:1015E00009F48BC020E034E439CFC9019F7019CFD2
:1015F0003327306C33CFC90154E0969587955A95BF
:10160000E1F78370422F46954695437090E2499FDB
:10161000A0011124582B822F837021E030E002C0FA
:10162000220F331F8A95E2F742CF322F2227216FF4
:10163000306A14CFC9018370992741E050E002C09D
:10164000440F551F8A95E2F72695269580E2289F3C
:1016500090011124242B352B3A6800CF322F2227FA
:10166000246F306AFBCE3F7036CF20E030EDF6CEEF
:1016700020E032EDF3CE21E830E4F0CE23E830E490
:10168000EDCE22EE34E4EACE29EE34E4E7CE2AEEC3
:1016900034E4E4CE25EB34E4E1CE26EB34E4DECED4
:1016A00023EB34E4DBCE24EB34E4D8CE27EB34E474
:1016B000D5CE2CEC34E4D2CE2DEC34E4CFCE23E8DE
:1016C00035E4CCCE2AE835E4C9CE22E935E4C6CEED
:1016D00024E935E4C3CE21E236E4C0CE23E236E489
:1016E000BDCE24E236E4BACE25E236E4B7CE26E219
:1016F00036E4B4CE27E236E4B1CE2AE236E4AECE0A
:10170000803E910581F1C8F48133910509F462C0EE
:1017100048F48932910509F456C08A32910509F4DA
:1017200060C0089589339105B9F082389105A1F020
:101730008533910509F440C00895863E910561F115
:1017400038F4823E9105B1F0833E9105E1F00895B1
:10175000873E910551F10895209181022370D9F0BF
:1017600080EE90E008952091810220FF14C089E36B
:1017700090E008952091810222FF0DC024FD09C050
:1017800083EE90E008952091810222FD31C024FF74
:1017900002C090E080E008952091810223FFFBCFFA
:1017A00024FDF7CF87EE90E008952091810223FF7A
:1017B000EECF86EE90E008952091810225FFEBCFD9
:1017C00089E290E008952091810225FFE4CF85E32E
:1017D00090E008952091810226FFDDCF8AE290E01B
:1017E00008952091810226FFD6CF81E390E00895ED
:1017F00082EE90E0089508950F931F93CF938C018C
:10180000FB018281811106C0C1E08C2FCF911F9115
:101810000F910895C0915101C11125C005311047A4
:1018200099F70E94FB0B81E0809351010E94EF1A0F
:101830009093500180934F01109244011092460101
:1018400010924501109248011092470110924A01EE
:101850001092490110924C0110924B0110924E01CE
:1018600010924D01D2CF80914F01909150010E9472
:10187000FB1A883C910540F680914401E82FF0E086
:10188000EE0FFF1FEB5BFE4F118300838F5F809392
:101890004401C0E0BACF0C9438080C94390885B7DD
:1018A000806885BF85B7806885BFA5E2B1E061E04B
:1018B00070E08D91E82FE295EF70F0E041A18F701C
:1018C0009B0101C0220F8A95EAF7922F90959423ED
:1018D00091A382A1822B82A381E0AB32B80749F7A2
:1018E000A3E1B1E061E070E08D91E82FE295EF7047
:1018F000F0E041A18F709B0101C0220F8A95EAF7A9
:10190000922F9095942391A382A1822B82A381E0B0
:10191000A532B80749F7EAE6F1E0A2E5B1E082E8CE
:1019200091E011921192119211921D921D921D92AD
:101930001D928E179F07A9F70C948F092F923F9243
:101940004F925F926F927F928F929F92AF92BF92CF
:10195000CF92DF92EF92FF920F931F93CF93DF937B
:10196000CDB7DEB72B970FB6F894DEBF0FBECDBF55
:1019700082E5282E81E0382E05E211E01E830D83DA
:1019800038862F82C12CD12C7601C394AF81B885C3
:101990008D909D90AD90BD90B887AF83FD01129260
:1019A000129212921292FB87EA87AD81BE818D91CD
:1019B000BE83AD83E82FE295EF70F0E091A18F70C8
:1019C00001E010E002C0000F111F8A95E2F71A83B0
:1019D0000983802F892B81A382A100950987802309
:1019E00082A310EA1A95F1F723E131E03C832B83BF
:1019F00090E080E0AB81BC817D90BC83AB83272DE0
:101A000022952F7030E0D90190965C90AA85BB8515
:101A10004D915D916D917C91272D2F7001E010E02B
:101A200002C0000F111F2A95E2F79801252109F045
:101A30007AC097018601082E04C0000F111F221FD3
:101A4000331F0A94D2F72801390144295529662900
:101A50007729AA85BB854D935D936D937C931397EE
:101A600001968231910531F681A11985182311A3C0
:101A700082A1B9818B2B82A3EA85FB85808191812C
:101A8000A281B38188169906AA06BB0649F0F1E047
:101A9000F09382010E94EF1A909384018093830156
:101AA0000F8118850A56114009F070CF809182018C
:101AB0008823E9F080918301909184010E94FB1AB0
:101AC0000697A8F02AE631E0F10181919191A19168
:101AD000B1911F01F90181939193A193B1939F015A
:101AE000FAE62F16F1E03F0679F7109282010E9484
:101AF0007D0981E02B960FB6F894DEBF0FBECDBFF7
:101B0000DF91CF911F910F91FF90EF90DF90CF90D9
:101B1000BF90AF909F908F907F906F905F904F900D
:101B20003F902F900895412C512C32018ECFCF93AE
:101B3000DF9300D000D0CDB7DEB794E0899FF001ED
:101B40001124E659FE4F80819181A281B381BC01AD
:101B5000CD010F900F900F900F90DF91CF910895CE
:101B6000089590938A01809389010895E0918901F5
:101B7000F0918A01309721F00190F081E02D0994D5
:101B800080E00895E0918901F0918A01309721F079
:101B90000280F381E02D09940895E0918901F0918C
:101BA0008A01309721F00480F581E02D0994089591
:101BB00020918701309188012817390771F090939F
:101BC000880180938701E0918901F0918A01309723
:101BD00021F00680F781E02D099408952091850178
:101BE000309186012817390771F090938601809310
:101BF0008501E0918901F0918A01309721F00084FC
:101C0000F185E02D0994089508950C94040E0E9426
:101C1000E61A0E944F0C0E94AF1B0C944E1F4F926D
:101C20005F926F927F929F92AF92BF92CF92DF921C
:101C3000EF92FF920F931F93CF93DF9300D000D0CA
:101C40000F92CDB7DEB70E949E0C2CE8A22E21E0A9
:101C5000B22E10E000E0902E802F0E94970D6B01B5
:101C60007C01F50141905190619071905F014C149D
:101C70005D046E047F0409F475C08091500281FDFB
:101C80000E94B00D90E080E04C245D246E247F24FF
:101C9000B301A201082E04C0769567955795479524
:101CA0000A94D2F740FF59C089839A82412C512C63
:101CB0003201439404C0440C551C661C771C8A9561
:101CC000D2F7C420D520E620F72081E0CD28CE2809
:101CD000CF2809F480E08B830E94EF1A8160782F6F
:101CE0009D838C8349815A816B818D810E94DE0E98
:101CF000000F111F000F111FF801E457FE4F8081E4
:101D00009181A281B38184259525A625B72580835D
:101D10009183A283B3830E945C1E0E94B60D9091B2
:101D20008B018917B1F10E94B60D80938B010F9042
:101D30000F900F900F900F90DF91CF911F910F9107
:101D4000FF90EF90DF90CF90BF90AF909F907F90EB
:101D50006F905F904F900C94C1090196823191056C
:101D600009F096CF0F5F1F4F0630110509F073CFB2
:101D70008FEF89838A831B820E94EF1A8160782FFC
:101D80009D838C8349815A816B818D810E94DE0EF7
:101D9000C2CF0F900F900F900F900F90DF91CF91C7
:101DA0001F910F91FF90EF90DF90CF90BF90AF9079
:101DB0009F907F906F905F904F900895CF93DF93A7
:101DC000CDB7DEB72B970FB6F894DEBF0FBECDBFF1
:101DD0004F83588769877A878B871E8285E0FE014B
:101DE0003796DE01119601900D928A95E1F74981AF
:101DF0005A816B817C818D819E812B960FB6F894E0
:101E0000DEBF0FBECDBFDF91CF910C947515882337
:101E100009F4D8C0823871F40E94B60D81FDD2C099
:101E200089E30E941A190E94E41989E30E94571954
:101E30000C94E419833859F40E94B60D80FDC2C099
:101E400083E50E941A190E94E41983E5EFCF8438D4
:101E500059F40E94B60D82FDB5C087E40E941A199C
:101E60000E94E41987E4E2CF9CEF980F913A18F4AE
:101E70000E941A19DDCF90E2980F983050F48770C5
:101E800091E001C0990F8A95EAF7892F0E949B196A
:101E9000CFCF9BE5980F933070F4853A31F0863AB6
:101EA00039F083E890E00C94D80D81E890E0FBCF06
:101EB00082E890E0F8CF98E5980F953108F082C05D
:101EC000883A09F440C0893A09F440C08A3A09F4D2
:101ED00040C08B3A09F440C08C3A09F440C08B3BB7
:101EE00009F440C08C3B09F440C08D3A09F440C06D
:101EF000803B09F440C08E3A09F440C08F3A09F49F
:101F000040C0813B09F440C0823B09F440C0833BA0
:101F100009F440C0843B09F440C0853B09F440C04B
:101F2000863B09F440C0873B09F440C0883B09F474
:101F300040C0893B09F440C08A3B09F440C090E0AE
:101F400080E00C94EE0D82EE90E0FBCF89EE90E005
:101F5000F8CF8AEE90E0F5CF85EB90E0F2CF86EBFC
:101F600090E0EFCF83EB90E0ECCF84EB90E0E9CF13
:101F700087EB90E0E6CF8CEC90E0E3CF8DEC90E047
:101F8000E0CF83E891E0DDCF8AE891E0DACF82E923
:101F900091E0D7CF84E991E0D4CF81E292E0D1CF34
:101FA00083E292E0CECF84E292E0CBCF85E292E072
:101FB000C8CF86E292E0C5CF87E292E0C2CF8AE244
:101FC00092E0BFCF0895882309F44BC0823871F4A2
:101FD0000E94B60D81FF45C089E30E941A190E9434
:101FE000E41989E30E9457190C94E419833859F4D1
:101FF0000E94B60D80FF35C083E50E941A190E9429
:10200000E41983E5EFCF843859F40E94B60D82FFBE
:1020100028C087E40E941A190E94E41987E4E2CFDD
:102020009CEF980F913AF0F290E2980F983050F4AC
:10203000877091E001C0990F8A95EAF7892F0E9475
:10204000A119D2CF9BE5980F933020F490E080E067
:102050000C94D80D885A853120F490E080E00C94DF
:10206000EE0D0895882321F00E949B190C94E41929
:102070000895882321F00E94A1190C94E419089571
:102080008F929F92AF92BF92DF92EF92FF920F9347
:102090001F93CF93DF9300D000D00F92CDB7DEB760
:1020A0007C016D837983FC01058102950F7012819B
:1020B00011110E94BA190E941319D82E882371F0A9
:1020C0001123A1F08D81805E883080F082E00E9433
:1020D000FD180E94131991E0D82ED926E981E295C6
:1020E000EF70F0E0E459F74D0C940828D12CF6CFAE
:1020F00009810F70F981F07F11F00295007F1123A3
:10210000B1F0002361F08D81805E883018F02D8160
:10211000211109C0802F0E949B190E94E4198D8112
:102120000E94070F15C0802F0E94AC19F6CF8D8139
:102130000E94E30F002361F08D81805E883018F0EB
:102140003D81311129C0802F0E94A1190E94E419FC
:10215000DD2009F4F3C10E94F01880FDEFC1F70102
:1021600012820E94EA180E943317C7010E94AF1220
:102170000E94EA180F900F900F900F900F90DF9130
:10218000CF911F910F91FF90EF90DF90BF90AF9094
:102190009F908F900C945517802F0E94B219D6CF24
:1021A00049814F70B42E5981507F503219F0B2944A
:1021B00080EFB8228D81882369F0813029F11123C5
:1021C00069F1002359F0F701858180FFA8CF8F7056
:1021D000858304C0112361F0011104C08B2D0E947E
:1021E0003210B6CF8B2D0130D1F70E94CE19B0CF6F
:1021F000011106C00E94D1198B2D0E943910A8CF61
:10220000013009F4A5CFF6CF112321F0063008F0F4
:102210009FCFE4CF053008F09BCFEECF002361F3D2
:102220008D810E94E30F94CF898186958695837076
:1022300069F0813009F08CCF8D81998193701111F3
:1022400002C090E080E00E94EE0D82CF8D819981E6
:102250009370111102C090E080E00E94D80D78CFF9
:102260008D81112329F00E946A1D0E94511E70CF9A
:102270000E94D21DFACF8981837009F05FC01111CD
:1022800067CF2D81229526952770220F220F8D81F1
:102290008F7090E0B0E0A0E04C015D01022E04C020
:1022A000880C991CAA1CBB1C0A94D2F7FD8160E023
:1022B00070E0CB01F4FF0FC06FE070E080E090E0D1
:1022C00004C0660F771F881F991F2A95D2F7609563
:1022D00070958095909529812695269523702D835C
:1022E0002230B1F0233019F19B01AC0128293929A2
:1022F0004A295B2929833A834B835C833D81698129
:102300007A818B819C813130B1F00E94C01620CF40
:102310009B01AC01282939294A295B2929833A8361
:102320004B835C83CA01B9010E94EA1611CF0E9457
:10233000C016C501B4010E9496160ACF86951123D6
:1023400011F089818170882309F402CF2D812295B3
:1023500026952770220F220F8D818F7090E0B0E0BC
:10236000A0E04C015D01022E04C0880C991CAA1C3F
:10237000BB1C0A94D2F73D8160E070E0CB0134FFD2
:102380000FC06FE070E080E090E004C0660F771F40
:10239000881F991F2A95D2F7609570958095909522
:1023A00049814695469543704D834230B1F04330A4
:1023B00019F19B01AC01282939294A295B29298374
:1023C0003A834B835C833D8169817A818B819C81D7
:1023D0003130B1F00E94C617BBCE9B01AC01282959
:1023E00039294A295B2929833A834B835C83CA01B3
:1023F000B9010E94F017ACCE0E94C617C501B40106
:102400000E949C17A5CE3D81323F09F447C080F45D
:10241000303F79F1313FD9F1832F805E8031D0F0A8
:10242000112309F456C001117ACE89818F7133C00E
:102430004D81433FD1F1443F99F7112309F43FC047
:1024400089818F7189830E94331763E089810E949B
:10245000F4187ECE5D815F705D8389818F71112359
:1024600021F00E9433178D81BACE0E9455178D81BD
:10247000C4CE112341F0053008F06ACE89818F71F6
:102480000E947A1765CE063008F062CEF7CF8981B8
:102490008F71112339F00E9433175ACE89818F71C1
:1024A0001123C9F30E94551753CE112329F08981B6
:1024B0008F710E941E174CCE0E94141749CE81E0E6
:1024C0000E94FD18023008F443CE82E00E94FD18FD
:1024D0003FCE0111A5CE89818F71E4CF49814F7024
:1024E0006D81C7010E9435080E940F1631CE11116F
:1024F0002FCEE981EF70E983E23099F028F4E11101
:102500000DC00E94601F24CEF981F33069F0F430D1
:1025100009F01ECE8D810E94C81F1ACE0E94781F1E
:1025200017CE0E94911F14CE0E94A51F11CE498183
:102530004F706D81C7010E94C3090ACE0F900F90A2
:102540000F900F900F90DF91CF911F910F91FF90FF
:10255000EF90DF90BF90AF909F908F9008950F9372
:102560001F93CF93DF93EC018B819C81892B29F002
:102570008881998189238F3F29F4DF91CF911F9121
:102580000F910895CE010E944E088823B1F368810F
:1025900079818A810E94C0188C010E941A180E94B9
:1025A0008B16B801CE01DF91CF911F910F910C9442
:1025B00040100E94BA190E94CB190E948D190E94E6
:1025C000E4190E94421F0E94511E90E080E00E9488
:1025D000D80D90E080E00C94EE0D0E94A9190C94A7
:1025E000D9120E94B418282F892F82958F70903CA1
:1025F00080F48A30B0F4843020F4823090F480E0AB
:1026000008958630E1F781E0203E88F0213FB9F758
:102610000EC08C3011F08F3091F793FB882780F932
:10262000089581E0203F39F018F4203E40F70895E6
:10263000243F29F7FCCF0895CF93DF9300D000D03B
:102640000F92CDB7DEB70F900F900F900F900F90B5
:10265000DF91CF910895CF93DF9300D000D000D0C9
:10266000CDB7DEB726960FB6F894DEBF0FBECDBF4E
:10267000DF91CF9108951F93CF93DF93E091A50150
:1026800016E08091A6018E1304C0DF91CF911F91B7
:102690000895CE2FD0E01E9FF0011124E955FE4F82
:1026A0004081518162817381848195810E942B13C5
:1026B000FE013196E770E5CF4091D7015091D801E6
:1026C0006091D9017091DA018091DB019091DC0178
:1026D0000C942B131F93CF93DF938091DC01807FA9
:1026E000C1F48091D9018823A1F08091A501C09106
:1026F000A6016091D7017091D8014091DA01509103
:10270000DB01D62FD723DA01A095B09516E0C813C8
:1027100004C0DF91CF911F91089590E041155105BC
:1027200011F0DF3F31F401968770F1CF2A0F3B1F84
:1027300017C0189FF001199FF00D1124E955FE4FA5
:1027400021812713F0CF20812613EDCF2281211183
:10275000EACF238134812417350740F3241B350B3E
:10276000283C310500F72091DC012F702061209377
:10277000DC0126E0289FF001299FF00D1124E4558B
:10278000FE4F80818F708061808387ED91E00E9491
:10279000AF12DF91CF911F910C943B139F92AF9298
:1027A000BF92CF92DF92EF92FF920F931F93CF933E
:1027B000DF93CDB7DEB72B970FB6F894DEBF0FBE11
:1027C000CDBF8C0185E0F801DE01179601900D92D6
:1027D0008A95E1F7D8014C9111965C911197129668
:1027E000EC9012978091DA019091DB01009709F447
:1027F0006BC12091D7013091D801632F62236F3FC5
:1028000009F462C11396CD90DC909090D901992083
:1028100009F4F8C0C816D90608F43FC0F601E81B51
:10282000F90BCF01FF24F394883C910508F0F12CBB
:1028300087EDA82E81E0B82E8091DC01982F907F43
:10284000FF2009F4B7C0911180C0FE2C35132AC0B7
:10285000241328C0E11026C08F7080618093DC01B2
:102860000E945C13C5010E94AF128091DC01D80167
:1028700015968C938F2D2B960FB6F894DEBF0FBE56
:10288000CDBFDF91CF911F910F91FF90EF90DF901F
:10289000CF90BF90AF909F900895809590958C0DAC
:1028A0009D1DC0CFCD2829F0842F85238F3F09F0AF
:1028B00019C180E0B82FB170DB2EE091A501209105
:1028C000A60136E080FD1CC0EE20A1F28091DC0163
:1028D00081608093DC01F12CCDCF8E2F90E03E9F64
:1028E000F0011124E955FE4F6181651306C0608136
:1028F000641303C062816E11E7CFFC013196E7706B
:10290000E213EBCF4F8358878F8198850E94B418CC
:10291000292F22952F70903260F0225F2F70223085
:1029200078F49F7051F0F8019581907F31F4D12CAB
:102930000AC09F7011F08823D1F3805E8830B8F30D
:10294000C8010E94AF12FD2C95CF351306C0241389
:1029500004C0D801EE2009F47BC04F8358878F81D3
:1029600098850E94F112882309F4B8C0EE2009F47A
:10297000B5C08091DC01803270F02091D701309198
:10298000D8013A8329831B82DD82CC828E83CE01DB
:1029900001960E94AF1286E0F801A7EDB1E0019028
:1029A0000D928A95E1F70E946A130E945C13FF243E
:1029B000F39460CF911113C07C2DDB86CA866E2DF7
:1029C0008B850E941C1387ED91E00E94AF1286E078
:1029D000F50111928A95E9F70E945C134BCF3513EC
:1029E000BCCF2413BACFE110B8CFD80115968C9381
:1029F000C8010E94AF1286E0F50111928A95E9F7AD
:102A0000F92C38CFC816D90688F1B601681B790BA6
:102A1000CB01F12C883C910508F047C0FE2CEE203C
:102A200009F45CC0351330C024132EC08091DC0142
:102A300080FD21C0982F907FF1F0D80115968C93DE
:102A40001597903F39F0982F907F905F8F70892B6A
:102A500015968C93C8010E94AF1286E0F801A7ED8D
:102A6000B1E001900D928A95E1F7B6CF80959095EF
:102A70008C0D9D1DCECF86E0F801A7EDB1E0019051
:102A80000D928A95E1F7F6CE4F8358878F8198850E
:102A90000E94F11281117FCF8091DC0181608093CF
:102AA000DC01C8010E94AF12E5CE7C2DDB86CA8610
:102AB0006E2D8B850E941C1386E0E7EDF1E0DF01AF
:102AC0001D928A95E9F788CFEE2041F04F83588711
:102AD0008F8198850E94F11281115DCFC8010E94FB
:102AE000AF1265CF81E08E25E5CE1F93CF93DF93A4
:102AF000CDB7DEB72C970FB6F894DEBF0FBECDBFB3
:102B00004F83588769877A878B879C87CE01079682
:102B10000E94CE13882369F08A859B85892B39F022
:102B20004F815885842F85238F3F09F071C016E0AF
:102B30005FC086E0FE013796DE01119601900D928E
:102B40008A95E1F78A859B85892B89F388859F8102
:102B500089238F3F61F32091A60130E0C9010196DE
:102B6000877099274091A5014817190671F40E94B2
:102B7000ED121092A6011092A50186E0E7EDF1E0BA
:102B8000DF011D928A95E9F7D2CF96E0929FD0019E
:102B9000939FB00D1124A955BE4FFE0131960190AF
:102BA0000D929A95E1F78093A6010E943B13BFCF47
:102BB000819FC001112489559E4F0E94CE13882306
:102BC000E9F0E091A5011E9FF0011124E955FE4FA7
:102BD0004081518162817381848195810E942B1390
:102BE0008091A50190E00196877099278093A501B7
:102BF0008091A5019091A6018913DACF2C960FB68A
:102C0000F894DEBF0FBECDBFDF91CF911F91089525
:102C100069857A858B859C850E942B1388CFEF92DE
:102C2000FF920F931F93CF93DF938C01892B89F031
:102C3000F12CEE24E394E8012196F8018491843785
:102C400009F457C0A0F4823009F43EC048F4813042
:102C5000D1F0DF91CF911F910F91FF90EF900895E8
:102C60009CEF980F9037A8F70E94070F0AC085378E
:102C700009F44CC09CE7980F903758F78F770E9463
:102C8000E30F8E0116C00E5F1F4FFE01849190E28C
:102C9000980F983060F48770FE2D01C0FF0F8A9561
:102CA000EAF78F2F0E94BD190E94E41902C00E940A
:102CB000070F8F2D815008F4BECFEFE9FFE0319769
:102CC000F1F700C00000F6CF0E5F1F4FFE018491A8
:102CD00090E2980F983050F48770FE2D01C0FF0FDE
:102CE0008A95EAF78F2F0E94C319DECF0E94E30F67
:102CF000E0CF0E5F1F4FFE01C491C150D0F28FE9AB
:102D00009FE00197F1F700C00000F7CF0E5F1F4F63
:102D1000FE01F490CECF08956093270270932802AD
:102D20008093290290932A020C94D912CF93DF93B7
:102D300000D000D0CDB7DEB769837A838B839C83C4
:102D40008091270290912802A0912902B0912A0235
:102D500029813A814B815C81822B932BA42BB52B4B
:102D60008093270290932802A0932902B0932A020D
:102D70000F900F900F900F90DF91CF910C94D9127C
:102D8000CF93DF9300D000D0CDB7DEB769837A83CD
:102D90008B839C838091270290912802A091290225
:102DA000B0912A0229813A814B815C81822393234D
:102DB000A423B5238093270290932802A09329028D
:102DC000B0932A020F900F900F900F90DF91CF9148
:102DD0000C94D912CF93DF9300D000D0CDB7DEB7DB
:102DE00069837A838B839C83809127029091280248
:102DF000A0912902B0912A0229813A814B815C81FC
:102E000082279327A427B52780932702909328022F
:102E1000A0932902B0932A020F900F900F900F9069
:102E2000DF91CF910C94D9121092230210922402B8
:102E300010922502109226020C94D91241E050E023
:102E400060E070E004C0440F551F661F771F8A952D
:102E5000D2F740932302509324026093250270938B
:102E600026020C94D912282F81E090E0A0E0B0E077
:102E700004C0880F991FAA1FBB1F2A95D2F7409143
:102E80002302509124026091250270912602842B26
:102E9000952BA62BB72B8093230290932402A0930B
:102EA0002502B09326020C94D91241E050E060E074
:102EB00070E004C0440F551F661F771F8A95D2F734
:102EC00040955095609570958091230290912402D1
:102ED000A0912502B091260284239523A623B7232F
:102EE0008093230290932402A0932502B09326029C
:102EF0000C94D912282F81E090E0A0E0B0E004C04B
:102F0000880F991FAA1FBB1F2A95D2F74091230251
:102F10005091240260912502709126028427952702
:102F2000A627B7278093230290932402A09325021B
:102F3000B09326020C94D912CF93DF9300D000D027
:102F4000CDB7DEB769837A838B839C83809123021C
:102F500090912402A0912502B091260229813A8104
:102F60004B815C81822B932BA42BB52B8093230266
:102F700090932402A0932502B09326020F900F9005
:102F80000F900F90DF91CF910C94D912CF93DF93D4
:102F900000D000D0CDB7DEB769837A838B839C8362
:102FA0008091230290912402A0912502B0912602E3
:102FB00029813A814B815C8182239323A423B52309
:102FC0008093230290932402A0932502B0932602BB
:102FD0000F900F900F900F90DF91CF910C94D9121A
:102FE000CF93DF9300D000D0CDB7DEB769837A836B
:102FF0008B839C838091230290912402A0912502CF
:10300000B091260229813A814B815C8182279327E6
:10301000A427B5278093230290932402A09325022E
:10302000B09326020F900F900F900F90DF91CF91E9
:103030000C94D9120895E82F22E1929FE00D1124FB
:103040008E2F877041E001C0440F8A95EAF7E6951C
:10305000E695E69585E0E89FF0011124E352FE4FE6
:1030600030E020E070E05191DF011197CB01022E9A
:1030700002C0969587950A94E2F78170819585271D
:10308000842385278C932F5F3F4F2530310559F7D7
:103090000895E82F22E1929FE00D11249E2F977052
:1030A000E695E695E69585E0E89FF0011124E35268
:1030B000FE4F50E040E080E0219130E0092E02C058
:1030C000369527950A94E2F721703327042E01C024
:1030D000220F0A94EAF7822B4F5F5F4F453051056C
:1030E00059F70895BF92CF92DF92EF92FF920F931C
:1030F0001F93CF93DF938C01C0902302D0902402C2
:10310000E0902502F09026028091270290912802FB
:10311000A0912902B0912A02C82AD92AEA2AFB2AB8
:10312000CFE1D0E0BC2ED701C6010C2E04C0B6956D
:10313000A795979587950A94D2F780FD0EC02197A1
:1031400088F7B12C8B2DDF91CF911F910F91FF90BC
:10315000EF90DF90CF90BF900895B8018C2F0E9420
:10316000E009019761F3EECFCF93DF93D82FC92FFA
:103170000E9472186D2F7C2FDF91CF910C94E00983
:103180001F93CF93DF93162FD72F9091A4019923EC
:1031900039F0862F972FDF91CF911F910C94B4189F
:1031A000882391F0862F972F0E947218C82F682FBE
:1031B000812F9D2F0E941B18612F7D2F8C2FDF9157
:1031C000CF911F910C94E009862F972F0E944918E8
:1031D000C82FF2CF80912B0285958595859508950E
:1031E00080912B028770089598E0899F90011124A7
:1031F000622B60932B020C94331790912B028095D5
:10320000892380932B02282F277061F4282F082E02
:10321000000C330B9217130629F08595859585953B
:103220000C945517089590912B02977081E009F442
:1032300080E00895909112019923E1F0909181022C
:1032400097FF18C0E82FE695E695E695EF3139F13E
:103250002091000130910101E20FF32FF11D8770E1
:1032600021E030E001C0220F8A95EAF78181822BAC
:10327000818308952091000130910101F901329676
:103280009FEF40E05191851751F09F3F19F4511184
:1032900001C0942F4F5F4E31A9F79F3F09F4089565
:1032A000290F311D97FD3A95F90182830895909178
:1032B0001201992301F19091810297FF1CC0E82F20
:1032C000E695E695E695EF3139F1209100013091D0
:1032D0000101E20FF32FF11D877021E030E0A90119
:1032E00002C0440F551F8A95E2F7CA01809591816B
:1032F0008923818308952091000130910101F90112
:103300003296205E3F4F9191891303C0DF011197E0
:103310001C92E217F307B9F7089581E090E0E0917D
:103320000001F0910101E80FF91F1082019680322F
:103330009105A9F7089590914F02982B90934F0211
:103340000895982F909580914F02892380934F0282
:10335000089510924F02089590914E02982B9093E9
:103360004E020895982F909580914E028923809364
:103370004E02089510924E02089590914D02982B9E
:1033800090934D020895982F909580914D02892336
:1033900080934D02089510924D02089580932C025F
:1033A000089510922C02089520910001309101019E
:1033B000F9013196205E3F4F80E0919191118F5F2E
:1033C000E217F307D1F70895E0910001F0910101B0
:1033D00080914F028083E0910001F0910101808192
:1033E00090914E02892B8083E0910001F0910101C0
:1033F000808190914D02892B808390912C0299239A
:1034000061F0E0910001F09101018081892B8083BE
:103410000E94D419811110922C0280910001909188
:1034200001010C94C20D6DEE7EEF90E080E00E94F1
:10343000422860E082E090E00E94302860E083E073
:1034400090E00E94302860E084E090E00E94302804
:1034500060E085E090E00E94302860E086E090E047
:103460000C94302890E080E00E942A289C0181E0A2
:103470002D3E3E4F09F080E0089582E090E00C94EC
:103480002228682F82E090E00C94302883E090E0BE
:103490000C942228682F83E090E00C94302884E07C
:1034A00090E00C942228682F84E090E00C9430285F
:1034B00086E090E00C942228682F86E090E00C943F
:1034C000302880918802843051F11092510288E1B5
:1034D00090E020E40FB6F894A895809360000FBEAA
:1034E0002093600080E00E94930980E00E94C1095F
:1034F00083B7817F846083BF83B7816083BF789403
:10350000889583B78E7F83BF0FB6F894A895809176
:103510006000886180936000109260000FBE089583
:1035200008950895CF93DF9300D000D00F92CDB7C8
:10353000DEB70E94901A0E949E0C0E94911A1D8272
:103540008D810E94970D672B682B692B71F48D81FB
:103550008F5F8D838630A1F780E00F900F900F90E2
:103560000F900F90DF91CF91089581E0F6CF0E94E8
:10357000ED120E944E1F0E94B60D0C94C1091F92BD
:103580001FB61F9211248F939F93AF93BF93809187
:103590005102811113C080917D0290917E02A09111
:1035A0007F02B09180024196A11DB11D80937D02E2
:1035B00090937E02A0937F02B0938002BF91AF915F
:1035C0009F918F911F901FBE1F90189582E084BD20
:1035D00093E095BD9AEF97BD80936E0008952FB745
:1035E000F89480917D0290917E02A0917F02B0912B
:1035F00080022FBF0895CF92DF92EF92FF929C013D
:103600004FB7F89480917D0290917E02A0917F0245
:10361000B09180024FBF6C017D01EE24FF24A9010F
:1036200070E060E0C416D506E606F70638F0821BA7
:10363000930BFF90EF90DF90CF9008950197F7CF15
:103640001F921FB61F9211248F939F93AF93BF9326
:1036500080917D0290917E02A0917F02B0918002C4
:103660000196A11DB11D80937D0290937E02A093CF
:103670007F02B0938002BF91AF919F918F911F9075
:103680001FBE1F9018950E94CB23F8942FEF87EA56
:1036900091E6215080409040E1F700C0000087E0B3
:1036A00090EBDC018093910290939202A09393029D
:1036B000B093940288E19CE00FB6F894A8958093AB
:1036C00060000FBE90936000FFCFAF92BF92CF9289
:1036D000DF92EF92FF920F931F93CF93C0E0A82E3B
:1036E000B12C8C2F0E94970D6B017C0110E000E043
:1036F000D701C601002E04C0B695A795979587956A
:103700000A94D2F780FF13C0602F7C2F80E00E94C4
:10371000C409A816B90659F481E0CF911F910F9101
:10372000FF90EF90DF90CF90BF90AF9008950F5F24
:103730001F4F02311105E1F6CF5FC63091F680E0F0
:10374000ECCFCF93C82F8CE20E94651B882321F019
:103750008C2FCF910C94651B80E0CF910895CF936F
:10376000DF9300D000D0CDB7DEB70E94321A8111AE
:1037700002C00E94131A95E6998308C00E949E0C0D
:103780008FE39CE90197F1F700C00000A981A150E7
:10379000A983A111F3CF89E20E94A11B811110C15D
:1037A0008AE20E94A11B81110E94131A85E00E94E7
:1037B000A11B81110E94431B0E943D1A809350025D
:1037C00087E00E94A11B882371F08BE10E94A11B5E
:1037D000882309F4D1C090915002892F8D7F91FFE9
:1037E000826080935002809150020E94411A0E9490
:1037F0004F1A90E0909382028093810280EE0E94A3
:10380000A11B882341F090918102892F8E7F90FF28
:1038100081608093810289E30E94A11B882341F08B
:1038200090918102892F8D7F91FF82608093810228
:1038300082EE0E94A11B882341F090918102892F82
:103840008B7F92FF84608093810286EE0E94A11B91
:10385000882341F090918102892F877F93FF8860B0
:103860008093810283EE0E94A11B882341F09091F6
:103870008102892F8F7E94FF80618093810285E38E
:103880000E94A11B882341F090918102892F8F7D96
:1038900095FF80628093810281E30E94A11B8823AF
:1038A00041F090918102892F8F7B96FF80648093F5
:1038B000810281E10E94A11B882341F09091810245
:1038C000892F97FB87F9805880938102809181022C
:1038D0000E94531A87E20E94A11B89838EE10E94F5
:1038E000A11B882319F0B981B260B9838FE10E94CE
:1038F000A11B882319F029812460298380E20E947A
:10390000A11B882319F039813860398381E20E9434
:10391000A11B882319F049814061498382E20E94FA
:10392000A11B882319F059815062598383E20E94B8
:10393000A11B882319F089818064898384E20E9415
:10394000A11B8823B1F199819068998389810E9494
:103950004A1A3981232F30E050E040E029833A832E
:103960004B835C83CA01B9010F900F900F900F90A9
:10397000DF91CF910C948C168EE00E94A11B8823BE
:1039800039F090915002892F8B7F92FF846029CF6C
:1039900080E10E94A11B90915002882329F0892F79
:1039A000877F93FF88601DCF892F8E7F90FF816076
:1039B00018CFA981A111CACF0E94461A282FCBCFB8
:1039C0000F900F900F900F90DF91CF9108958091FD
:1039D000540280FF12C06091050185E0689FB0012C
:1039E0001124759567957595679560387105A8F5EB
:1039F00061157105A1F1862F089581FF09C06091BD
:103A0000050185E0689FB001112475956795EDCF9C
:103A10006091050182FD0AC0809155028823D1F092
:103A20009091040160910501891728F085E0689F55
:103A3000B0011124DACF869FB001112485E0869F62
:103A40009001879F300D1124692F70E0C9010E94F9
:103A5000F427CBCF65E070E0CECF8FE7089581E00B
:103A600008958091540280FF0CC06091030170E0C2
:103A700075956795759567956115710549F1862F5F
:103A8000089581FF06C06091030170E07595679508
:103A9000F3CF6091030182FD0BC0909155029923F1
:103AA000A1F06091020180910301961738F0682F10
:103AB00070E06038710500F38FE70895899FC001B9
:103AC000112470E00E94F427F4CF61E070E0D7CFBA
:103AD00081E00895803F31F40E94E71C8195809336
:103AE00058020895813F19F40E94E71CF8CF823FE5
:103AF00031F40E94E71C8195809357020895833F1B
:103B000019F40E94E71CF8CF893F29F40E94311D67
:103B10008093590208958A3F21F40E94311D8195B6
:103B2000F7CF8B3F31F40E94311D819580935A026B
:103B300008958C3F19F40E94311DF8CF843F31F471
:103B4000809156028160809356020895853F21F44A
:103B5000809156028260F7CF863F21F48091560211
:103B60008460F1CF873F21F4809156028860EBCFCB
:103B7000883F21F4809156028061E5CF8D3F31F47A
:103B80008091540281608093540208958E3F21F405
:103B9000809154028260F7CF8F3FB9F78091540231
:103BA0008460F1CF90915702803F41F48091580298
:103BB00087FD10925802992371F00895813F29F4EE
:103BC000809158021816ACF3F6CF823F81F497FF2C
:103BD000F2CF109257028091580290915902892B8E
:103BE00090915A02892B49F7109255020895833F0C
:103BF00019F4191674F3DFCF893F39F48091590213
:103C00001816CCF610925902D6CF8A3F29F480912B
:103C1000590287FFD0CFF6CF8B3F39F480915A02FB
:103C200087FFC9CF10925A02C6CF8C3F29F48091EA
:103C30005A021816BCF3BFCF843F31F4809156026C
:103C40008E7F80935602B7CF853F21F48091560234
:103C50008D7FF7CF863F21F4809156028B7FF1CF85
:103C6000873F21F480915602877FEBCF883F21F474
:103C7000809156028F7EE5CF8D3F31F480915402C2
:103C80008E7F8093540297CF8E3F21F4809154020F
:103C90008D7FF7CF8F3F09F08ECF809154028B7FBD
:103CA000F0CF86E592E00E94CD0D0E94EF1A90932E
:103CB00053028093520208951F93CF93DF9300D055
:103CC00000D000D0CDB7DEB7809152029091530260
:103CD0000E94FB1AAC01809155022091060130E050
:103CE000811106C0209107019AE0299F90011124BB
:103CF0004217530788F020915702A0915802A983D8
:103D000010915902B0915A02BE8321110FC09A2F0F
:103D1000912B9B2B09F0B2C026960FB6F894DEBF0C
:103D20000FBECDBFDF91CF911F9108958F3F19F046
:103D30008F5F80935502121624F40E94E71C809333
:103D400057028091570287FF05C00E94E71C8195AA
:103D5000809357022981121624F40E94E71C809355
:103D600058028091580287FF05C00E94E71C819588
:103D70008093580280915702882309F455C03091EE
:103D800058023D83332309F44FC0282F880F330B8B
:103D9000440B550B29833A834B835C83CA01B901D9
:103DA0000E94FB2623E333E343E35FE369837A83E3
:103DB0008B839C8369817A818B819C810E945F27A0
:103DC00069837A838B839C8369817A818B819C81CF
:103DD0000E94C326609357028D81082E000C990B18
:103DE000AA0BBB0B89839A83AB83BC83BC01CD0137
:103DF0000E94FB2623E333E343E35FE369837A8393
:103E00008B839C8369817A818B819C810E945F274F
:103E100069837A838B839C8369817A818B819C817E
:103E20000E94C32660935802111624F40E94311D8B
:103E3000809359028091590287FF05C00E94311D6D
:103E40008195809359029E81191624F40E94311D98
:103E500080935A0280915A0287FF05C00E94311D4B
:103E6000819580935A0226960FB6F894DEBF0FBE56
:103E7000CDBFDF91CF911F910C94511E8F3F09F060
:103E800057CF68CF85E0E6E5F2E0DF011D928A9525
:103E9000E9F7109255021092540208950E94321AC6
:103EA000811102C00E94131A0E94581A982F809301
:103EB0008302817090FF02C0892F86950C9493092C
:103EC00080918302982F9695863030F49F5F990FEA
:103ED0008170892B8093830280918302816080931B
:103EE00083020E945C1A8091830286950C94930948
:103EF00080918302982F9E7F79F082508093830275
:103F00008E7F91E009F490E08091830290FB80F92C
:103F1000809383020E945C1A8091830286950C94A0
:103F2000930990918302892F8E7F90FF8160809307
:103F300083020E945C1A90918302892F817090FF06
:103F400002C0892F86950C94930990918302892F42
:103F500086958F5F8F7791708430B8F4880F892BA6
:103F600080938302809183028E7F91E009F490E038
:103F70008091830290FB80F9809383020E945C1AF7
:103F80008091830286950C94930990938302EACFE3
:103F900090918302292F26952827220F9170922B2A
:103FA000909383029E7F21E009F420E080918302B8
:103FB00020FB80F9809383020E945C1A8091830227
:103FC00086950C94930980917B020895CF93DF939B
:103FD00000D00F92CDB7DEB720918802243019F5BA
:103FE00023E029838A839B832093E9008FEF9091BC
:103FF000E800815095FD06C095ED9A95F1F7000017
:104000008111F5CF8091E80085FF0DC050E040E0C0
:1040100063E070E0CE0101960E9443228091E800A7
:104020008E778093E8000F900F900F90DF91CF91E3
:104030000895CF93DF9300D00F92CDB7DEB79C01E8
:1040400080918802843031F582E0898320583109DB
:104050003B832A8383E08093E9008FEF9091E8000F
:10406000815095FD06C095ED9A95F1F700008111FC
:10407000F5CF8091E80085FF0DC050E040E063E09F
:1040800070E0CE0101960E9443228091E8008E7775
:104090008093E8000F900F900F90DF91CF910895DB
:1040A000209188022430F1F422E02093E9002FEFE0
:1040B0003091E800215035FD06C035ED3A95F1F715
:1040C00000002111F5CF2091E80025FF0BC050E042
:1040D00040E065E070E00E9443228091E8008E7726
:1040E0008093E8000895CF93DF93D82FC92F809154
:1040F00088028430F1F4909112019923E9F09091B3
:10410000810297FF19C08093E9008FEF9091E8003A
:10411000815095FD06C095E19A95F1F70000811157
:10412000F5CF8091E80050E040E060E270E085FD6E
:104130001AC0DF91CF91089581E08093E9008FEF5D
:104140009091E800815095FD06C095ED9A95F1F7A4
:1041500000008111F5CF8091E80085FFEACF50E0A3
:1041600040E068E070E08D2F9C2F0E9443228091F8
:10417000E8008E778093E80080E2ED2FFC2FABE51E
:10418000B2E001900D928A95E1F7D3CF809187023A
:10419000811109C00E94CB230E9428248091E20053
:1041A00084608093E2000895109287020895089534
:1041B00008950C94B71A42E061EC81E00E94472315
:1041C00042E061EC82E00E94472342E061EC83E040
:1041D0000E94472342E261EC84E00C9447238091E3
:1041E0008A02893089F148F4823009F494C083301E
:1041F00009F44FC0813041F008958A3009F47BC042
:104200008B3009F461C0089580918902813A09F0E8
:104210003FC08091E800877F8093E80080918D0205
:1042200090918E02892B61F460E28BE592E070E060
:104230000E9492228091E8008B778093E800089595
:1042400060E090E080E0F3CF80918902813201F557
:1042500080918D0290918E02009711F00397C1F426
:104260008091E800877F8093E8008091E80082FFDA
:104270000BC08091F10080937B028091E8008B77E6
:104280008093E8000C947B23809188028111EDCF0C
:10429000089580918902813AD9F780918D02909199
:1042A0008E02892BA9F78091E800877F8093E80030
:1042B0008091E80080FFFCCF809112018093F10093
:1042C0008091E8008E77DCCF80918902813201F7FE
:1042D00080918D0290918E02892BD1F68091E80019
:1042E000877F8093E8000E947B2380918B028093DC
:1042F00012010C94ED1280918902813249F680916D
:10430000E800877F8093E8000E947B2380918C02E5
:1043100080937C02089580918902813A09F0B8CF98
:104320008091E800877F8093E8008091E80080FF1B
:10433000FCCF80917C02C2CF84B7877F84BF0FB649
:10434000F894A89580916000886180936000109235
:1043500060000FBE80E880936100109261000E94AF
:10436000050E0E94CB230E9428248091E2008460E5
:104370008093E20078940E94A8260E94070E88E0AD
:1043800091E00E94B10D80918802853019F00E9461
:104390000F0EF9CF0E94611A80918602882399F34B
:1043A0000E94921A882379F30E942D22ECCF9C015F
:1043B000DA01892F992783309105C1F068F48130A3
:1043C000910509F445C0029761F48DE690E02CE573
:1043D0003EE02D933C93089581329105E1F0829760
:1043E00039F190E080E030E020E0F3CFC901992777
:1043F000213059F08230910559F0E8E5FEE0892B33
:1044000081F7849190E09F01E4CFE0E4FEE0F9CFF2
:10441000ECE2FEE0F6CF643020F7E62FF0E0EE0F9E
:10442000FF1FE95CFE4F2081318189E090E0D1CF10
:104430006430B8F670E0FB01EE0FFF1FE15DFE4F48
:1044400020813181655D7E4FFB01808190E0C1CF8D
:1044500082E190E029EC3EE0BCCF80E189BD82E1C1
:1044600089BD09B400FEFDCF8091D8008F7D809377
:10447000D8008091E00082608093E0008091E000AD
:1044800081FDFCCF0895AF92BF92CF92DF92FF9251
:104490000F931F93CF93DF936C01EB018A010E946E
:1044A0009A23F82E811123C00115110539F0F80166
:1044B00080819181C81BD90BC80ED91EB12CA12CAB
:1044C0002097A9F08091E80085FD22C08091E80046
:1044D0008E778093E80001151105A1F0F801808125
:1044E0009181A80EB91EB182A08285E0F82E8F2D91
:1044F000DF91CF911F910F91FF90DF90CF90BF90F0
:10450000AF9008950E949A238823D1F2F82EEFCF1E
:10451000F60181916F018093F1002197FFEFAF1AAF
:10452000BF0ACECFFC01CB0120918F0230919002C7
:104530002617370790F0009729F42091E8002E778E
:104540002093E80040E0009751F4411108C08091A9
:10455000E80082FF31C080E00895C901F3CF2091C7
:1045600088022223A9F12530A9F12091E80023FD3A
:104570002DC02091E80022FDEACF2091E80020FF25
:10458000E2CF3091F3002091F200009719F028302B
:10459000310558F041E02830310509F040E0209124
:1045A000E8002E772093E800CECF41914093F100B0
:1045B00001972F5F3F4FE9CF80918802882341F018
:1045C000853041F08091E80083FFC1CF81E00895FC
:1045D00082E0089583E00895FC01CB0120918F02D1
:1045E000309190022617370790F0009729F4209118
:1045F000E8002E772093E80040E0009751F4411145
:1046000008C08091E80082FF32C080E00895C901AF
:10461000F3CF209188022223B1F12530B1F120910E
:10462000E80023FD2EC02091E80022FDEACF209172
:10463000E80020FFE2CF3091F3002091F2000097D4
:1046400019F02830310558F041E02830310509F0E3
:1046500040E02091E8002E772093E800CECF4491EF
:104660004093F100319601972F5F3F4FE8CF809143
:104670008802882341F0853041F08091E80083FF73
:10468000C0CF81E0089582E0089583E00895982FD7
:10469000973028F08F708093E90081E0089590931F
:1046A000E900242F762F50E0981731F07091EC003C
:1046B0002091ED005091F00021FD02C09F5FE8CFF6
:1046C0003091EB003E7F3093EB003091ED003D7F69
:1046D0003093ED003091EB0031603093EB0070933C
:1046E000EC002093ED005093F0002091EE0027FDA8
:1046F000E5CF80E008958091890287FF13C0809103
:10470000E80082FF06C08091E8008B778093E80084
:1047100004C0809188028111F2CF089580918802AF
:104720008823D9F38091E80080FFF8CF8091E800DA
:104730008E77ECCF2091E4003091E50095E6A90159
:104740002091EC00822F817020FF06C08091E8004C
:1047500080FF06C080E008952091E80022FD1AC085
:1047600080918802882389F0853089F08091EB0060
:1047700085FD0FC02091E4003091E50042175307FA
:10478000F9F29150E1F684E0089582E0089583E023
:10479000089581E008950E9439240E944124E0EEAA
:1047A000F0E0808181608083E8EDF0E080818F77A8
:1047B000808319BCA7EDB0E08C918E7F8C938081B3
:1047C0008F7E80831092870208950F931F93CF935B
:1047D000DF930E9439240E944124C8EDD0E08881F3
:1047E0008F77888388818068888388818F7D88839C
:1047F00019BC1092880210928402109286021092C4
:10480000850200EE10E0F80180818B7F8083888133
:104810008160888342E060E080E00E944723E1EE0F
:10482000F0E080818E7F8083E2EEF0E08081816025
:104830008083808188608083F80180818E7F80837F
:10484000888180618883DF91CF911F910F910895B6
:10485000E8EDF0E080818F7E8083E7EDF0E08081FD
:104860008160808384E082BF81E0809387020C9422
:10487000E523E8EDF0E080818E7F80831092E200F6
:1048800008951092DA001092E10008951F920F929D
:104890000FB60F9211242F933F934F935F936F9313
:1048A0007F938F939F93AF93BF93EF93FF938091E9
:1048B000E10082FF0BC08091E20082FF07C080917F
:1048C000E1008B7F8093E1000E94A7268091DA00AF
:1048D00080FF19C08091D80080FF15C08091DA0058
:1048E0008E7F8093DA008091D90080FF94C080E1B0
:1048F00089BD82E189BD09B400FEFDCF81E08093CE
:1049000088020E94C6208091E10080FF19C080913A
:10491000E20080FF15C08091E2008E7F8093E2006C
:104920008091E20080618093E2008091D8008062F3
:104930008093D80019BC85E0809388020E94D8201B
:104940008091E10084FF29C08091E20084FF25C0AE
:1049500080E189BD82E189BD09B400FEFDCF80916F
:10496000D8008F7D8093D8008091E1008F7E809366
:10497000E1008091E2008F7E8093E2008091E2006E
:1049800081608093E20080918402882309F449C009
:1049900084E0809388020E94D9208091E10083FF07
:1049A00029C08091E20083FF25C08091E100877FCC
:1049B0008093E10082E080938802109284028091CB
:1049C000E1008E7F8093E1008091E2008E7F8093F2
:1049D000E2008091E20080618093E20042E060E0CA
:1049E00080E00E9447238091F00088608093F0006F
:1049F0000E94D720FF91EF91BF91AF919F918F912E
:104A00007F916F915F914F913F912F910F900FBECA
:104A10000F901F90189519BC109288020E94D42004
:104A200072CF8091E30087FD02C081E0B2CF83E0C6
:104A3000B0CF1F920F920FB60F9211242F933F9376
:104A40004F935F936F937F938F939F93AF93BF9396
:104A5000CF93DF93EF93FF93D091E900DF708091C4
:104A6000EC00C82FC17080FDC0E81092E900809171
:104A7000F000877F8093F00078940E945D2510926B
:104A8000E9008091F00088608093F000CD2BCF701A
:104A9000C093E900FF91EF91DF91CF91BF91AF916A
:104AA0009F918F917F916F915F914F913F912F9146
:104AB0000F900FBE0F901F9018951F93CF93DF9309
:104AC000CDB7DEB7AA970FB6F894DEBF0FBECDBF45
:104AD00089E892E0FC0101962091F100208322E018
:104AE00081399207B9F70E94EF208091E80083FF97
:104AF00016C18091890290918A029A3008F00FC104
:104B0000E92FF0E0E458F74D0C940828803881F044
:104B1000823809F004C180918D028F708093E90082
:104B20008091EB0085FB882780F91092E90006C090
:104B30008091850290918602911182609091E800A7
:104B4000977F9093E8008093F1001092F10080919C
:104B5000E8008E77E0C0882309F4CEC0823009F0E7
:104B6000DEC080918B028111D1C080918D028F7047
:104B700009F4D5C08093E9002091EB0020FFC6C066
:104B8000933031F48091EB0080628093EB00BEC0E3
:104B90009091EB0090619093EB0021E030E001C038
:104BA000220F8A95EAF72093EA001092EA0080919A
:104BB000EB008860EACF8111B2C010918B021F77A1
:104BC0008091E3008078812B8093E3008091E8005E
:104BD000877F8093E8000E947B238091E80080FF1C
:104BE000FCCF8091E30080688093E30082E01111A4
:104BF00083E08093880293C08058823008F08FC091
:104C000080918B0290918C028C3D23E09207A1F55C
:104C100083E08A838AE289834FB7F894DE01139692
:104C200020E03EE051E2E32FF0E050935700E491A2
:104C300020FF03C0E295EF703F5FEF708E2F90E092
:104C4000EA30C0F0C7968D939D932F5F243159F7BA
:104C50004FBF8091E800877F8093E8006AE270E0B0
:104C6000CE0101960E9492228091E8008B7780937A
:104C7000E80055C0C096E7CFAE014F5F5F4F60912F
:104C80008D020E94D721BC01892B09F448C0809174
:104C9000E800877F8093E80089819A810E94EC2256
:104CA000E3CF8038E1F58091E800877F8093E800CA
:104CB000809184028093F1004ACF811130C090919D
:104CC0008B02923060F58091E800877F8093E80046
:104CD000909384020E947B2380918402882311F0A8
:104CE00084E005C08091E30087FDFACF81E08093E6
:104CF00088020E94DB2013C080918B02813079F4FE
:104D000081E0933009F080E0809386021092E90000
:104D10008091E800877F8093E8000E947B23809148
:104D2000E80083FF0AC08091E800877F8093E80055
:104D30008091EB0080628093EB00AA960FB6F89406
:104D4000DEBF0FBECDBFDF91CF911F9108950895B3
:104D5000CF93809188028823A1F0C091E900CF70A1
:104D60009091EC00892F817090FD80E8C82B109203
:104D7000E9008091E80083FD0E945D25CF70C0931B
:104D8000E900CF9108950E94CA266894B1110C944D
:104D9000592708950E943E2788F09F5798F0B92F11
:104DA0009927B751B0F0E1F0660F771F881F991F60
:104DB0001AF0BA95C9F714C0B13091F00E94582783
:104DC000B1E008950C945827672F782F8827B85F93
:104DD00039F0B93FCCF3869577956795B395D9F7B8
:104DE0003EF490958095709561957F4F8F4F9F4FC2
:104DF0000895E89409C097FB3EF4909580957095CE
:104E000061957F4F8F4F9F4F9923A9F0F92F96E916
:104E1000BB279395F695879577956795B795F1118B
:104E2000F8CFFAF4BB0F11F460FF1BC06F5F7F4F28
:104E30008F4F9F4F16C0882311F096E911C077233A
:104E400021F09EE8872F762F05C0662371F096E843
:104E5000862F70E060E02AF09A95660F771F881F12
:104E6000DAF7880F9695879597F9089557FD90582A
:104E7000440F551F59F05F3F71F04795880F97FB1E
:104E8000991F61F09F3F79F08795089512161306D8
:104E90001406551FF2CF4695F1DF08C01616170607
:104EA0001806991FF1CF869571056105089408953C
:104EB000E894BB2766277727CB0197F908950E94CE
:104EC00072270C94E3270E94D52738F00E94DC2734
:104ED00020F0952311F00C94CC270C94D2271124A8
:104EE0000C9459270E94362770F3959FC1F3950FB4
:104EF00050E0551F629FF001729FBB27F00DB11D5E
:104F0000639FAA27F00DB11DAA1F649F6627B00DED
:104F1000A11D661F829F2227B00DA11D621F739FD6
:104F2000B00DA11D621F839FA00D611D221F749FE4
:104F30003327A00D611D231F849F600D211D822F2B
:104F4000762F6A2F11249F5750409AF0F1F0882352
:104F50004AF0EE0FFF1FBB1F661F771F881F91507F
:104F60005040A9F79E3F510580F00C94CC270C943B
:104F700059275F3FE4F3983ED4F38695779567957C
:104F8000B795F795E7959F5FC1F7FE2B880F911DA9
:104F90009695879597F9089597F99F6780E870E04F
:104FA00060E008959FEF80EC089500240A9416169F
:104FB000170618060906089500240A941216130607
:104FC000140605060895092E0394000C11F4882395
:104FD00052F0BB0F40F4BF2B11F460FF04C06F5FB1
:104FE0007F4F8F4F9F4F089597FB072E16F4009425
:104FF00007D077FD09D00E940E2807FC05D03EF4AB
:10500000909581959F4F0895709561957F4F089574
:10501000EE0FFF1F0590F491E02D0994AA1BBB1B16
:1050200051E107C0AA1FBB1FA617B70710F0A61BA8
:10503000B70B881F991F5A95A9F780959095BC01C9
:10504000CD010895F999FECF92BD81BDF89A9927B7
:1050500080B50895A8E1B0E042E050E00C944A2801
:10506000262FF999FECF92BD81BDF89A019700B421
:10507000021639F01FBA20BD0FB6F894FA9AF99AC1
:105080000FBE08950196272F0E9431280C943028D6
:10509000DC01CB01FC01F999FECF06C0F2BDE1BDF8
:1050A000F89A319600B40D9241505040B8F70895E7
:1050B000F894FFCFEE08FA08FE08020906090A096B
:1050C0000E09120916091A091E09220926092A09B8
:1050D0002E09320936093A0978107810D010D0100C
:1050E00014113011A810A8103B11A81003120312BC
:1050F0006E127712A81097128625AB258F26AB2546
:0C5100008F26DB25FC258F2651265D261E
:10510C002D022808140A321EE31F73205020192088
:10511C00E61F019496973435366667F7F6F5F4F189
:10512C00F0C6323130919033929395404D36399789
:10513C000F4A0F140FDB0E6E0E870EA00EB90E0069
:00000001FF
